S0190000496E74657266616374696E675F56302E312E73726563E9
S11300000C942A000C9447000C9447000C9447006D
S11300100C9447000C9447000C9447000C94470040
S11300200C9447000C9447000C9447000C94470030
S11300300C9447000C9447000C9447000C94470020
S11300400C9447000C9447000C9447000C94470010
S11300500C94470011241FBECFE5D8E0DEBFCDBF0E
S113006011E0A0E6B0E0E0EDFBE002C005900D92E7
S1130070A835B107D9F721E0A8E5B1E001C01D9288
S1130080A738B207E1F70E944B010C94E6050C94E3
S1130090000080EF81BB8FEF82BB82B38F7082BB85
S11300A0000080B38F70809358018F30B1F787E8D8
S11300B093E10197F1F700C0000080B38F70809343
S11300C058018F30A1F38FE097E20197F1F700C058
S11300D0000080B38F70809358018F3041F38FEE0E
S11300E082BB000080B38F70809358018F3019F069
S11300F01092590127C08FED82BB000080B38F702E
S1130100809358018F3021F081E0809359011AC007
S11301108FEB82BB000080B38F70809358018F30C7
S113012021F082E0809359010DC08FE782BB00006B
S113013080B38F70809358018F3009F4AACF83E085
S113014080935901809158018E3059F4E0915901FE
S1130150F0E0EE0FFF1FEE0FFF1FE05AFF4F80810C
S113016008958D3059F4E0915901F0E0EE0FFF1F2E
S1130170EE0FFF1FE05AFF4F818108958B3059F431
S1130180E0915901F0E0EE0FFF1FEE0FFF1FE05A60
S1130190FF4F82810895E0915901F0E0EE0FFF1FB7
S11301A0EE0FFF1FE05AFF4F8381089580E790E030
S11301B00E94D00186E790E00E94D00160E070E0E8
S11301C081E090E00E94ED018FE790E00E94D00171
S11301D00E9449000895CF930E94E6010E946F0295
S11301E08BE890E00E94D0018FEF82BB0E9449000F
S11301F0C82F893311F40E94E601C933B9F7CF91AE
S11302000895CF930E94E6018EE890E00E94D00109
S113021060E070E081E090E00E94ED018DE990E003
S11302200E94D00182EA90E00E94D0010E9449001D
S11302300E94E6018AEA90E00E94D00182EB90E0FD
S11302400E94D00160E070E081E090E00E94ED0146
S11302508BEB90E00E94D00184EC90E00E94D001EE
S11302600E9449000E94E6010E944900C82F893378
S113027011F40E94E601C933B9F7CF910895CF93E1
S11302800E944900C82F893311F40E94E601C93342
S1130290B9F7CF91089585B3806485BB85B3806831
S11302A085BB0E94FC010E94B7010E94D6008233E4
S11302B061F018F4813331F013C0833349F084338F
S11302C051F00EC00E94EB00F0CF0E940101EDCF6F
S11302D00E943F01EACF8EEC90E00E94A605E5CF94
S11302E081EE90E00E94A605E0CF88BB85B38E7FA7
S11302F085BB85B38D7F85BB85B3846085BB82E078
S11303008A95F1F700C085B38B7F85BB8FE697E1B3
S11303100197F1F700C00000089588BB85B38160A0
S113032085BB85B38D7F85BB85B3846085BB8DE03C
S11303308A95F1F7000085B38B7F85BB8FE097E248
S11303400197F1F700C00000089588BB85B3816070
S113035085BB85B38D7F85BB85B3846085BB8DE00C
S11303608A95F1F7000085B38B7F85BB08958FEFE5
S113037084BB87BB8FE39CE90197F1F700C00000C1
S113038088E30E9475018CE00E94750186E00E945A
S1130390750181E00E94750180E80E94750108954D
S11303A00F931F93CF93DF938C01C0E0D0E003C081
S11303B00E948D012196F801EC0FFD1F80818111AF
S11303C0F7CFDF91CF911F910F91089581E00E94A3
S11303D0750180E80E9475010895882321F0813019
S11303E021F080E003C080E801C080EC603108F4B3
S11303F0860F0E94750108951ABA87E886B980E4C9
S113040087B9089597B18F70982B97B986B1806496
S113041086B9349BFECF8AE18A95F1F700C024B1F6
S113042085B190E0982F8827820F911D0895EF924F
S1130430FF920F931F93CF93DF93CDB7DEB72A9725
S11304400FB6F894DEBF0FBECDBFDC017B019E0169
S11304502F5F3F4F8AE0F90111928A95E9F780E214
S1130460898320E030E00AC0E1E0F0E0EC0FFD1FFA
S1130470E20FF31F90E290832F5F3F4F2E153F054D
S113048098F34AE050E0BE016F5F7F4FCD010E94B8
S1130490760500E010E013C0E1E0F0E0EC0FFD1F92
S11304A0E00FF11F808190ED980F9A3020F080E2E8
S11304B00E94A50102C00E94A5010F5F1F4F0E15E7
S11304C01F0550F32A960FB6F894DEBF0FBECDBFBA
S11304D0DF91CF911F910F91FF90EF90089580E0ED
S11304E00E9402029093800180937F018A319105DA
S11304F00CF041C0BC01990F880B990B0E94550464
S113050020E030E040EA50E40E94E10420E030ECD6
S11305104FE754E40E94AB039B01AC0160937B0161
S113052070937C0180937D0190937E0160E070E084
S113053080EA90E40E94AB0320E030E040E351E421
S11305400E943E030E941D0470935B0160935A0154
S113055080E80E94750188E191E00E94D00180EC5E
S11305600E94750166E070E080915A0190915B01F0
S11305700E9417020895BC01990F880B990B0E94E1
S1130580550420E030E040EA50E40E94E10420E019
S113059030EC4FE754E40E94AB0360937B0170930B
S11305A07C0180937D0190937E0120E030E04AE756
S11305B054E40E94AB039B01AC0160E070E080EA6C
S11305C090E40E94AB0320E030EE4BE256E40E943C
S11305D03E030E941D049B0170935B0160935A01CA
S11305E0615071096F30774298F480E80E94750178
S11305F086E291E00E94D00180EC0E94750166E0E1
S113060070E080915A0190915B010E941702089555
S1130610213187E23807C4F080E80E94750188E13F
S113062091E00E94D00180EC0E94750180915A01F2
S113063090915B0168EE73E00E944E05CB0166E089
S113064070E00E9417020895223331057CF480E89B
S11306500E94750183E391E00E94D00180EC0E9426
S1130660750181E491E00E94D001089580E80E9420
S113067075018FE491E00E94D00108955058BB2782
S1130680AA270E9456030C94A7040E94990438F0E8
S11306900E94A00420F039F49F3F19F426F40C942E
S11306A096040EF4E095E7FB0C949004E92F0E9465
S11306B0B80458F3BA17620773078407950720F044
S11306C079F4A6F50C94DA040EF4E0950B2EBA2F07
S11306D0A02D0B01B90190010C01CA01A001112444
S11306E0FF27591B99F0593F50F4503E68F11A16F0
S11306F0F040A22F232F342F4427585FF3CF469581
S113070037952795A795F0405395C9F77EF41F16A2
S1130710BA0B620B730B840BBAF09150A1F0FF0F6C
S1130720BB1F661F771F881FC2F70EC0BA0F621F58
S1130730731F841F48F4879577956795B795F79548
S11307409E3F08F0B0CF9395880F08F09927EE0FDD
S11307509795879508950E94BF030C94A7040E945F
S1130760A00458F00E94990440F029F45F3F29F056
S11307700C94900451110C94DB040C9496040E9484
S1130780B80468F39923B1F3552391F3951B550BE2
S1130790BB27AA2762177307840738F09F5F5F4F50
S11307A0220F331F441FAA1FA9F335D00E2E3AF08F
S11307B0E0E832D091505040E695001CCAF72BD0A7
S11307C0FE2F29D0660F771F881FBB1F26173707F8
S11307D04807AB07B0E809F0BB0B802DBF01FF272A
S11307E093585F4F3AF09E3F510578F00C94900473
S11307F00C94DB045F3FE4F3983ED4F3869577953D
S11308006795B795F7959F5FC9F7880F911D9695E2
S1130810879597F90895E1E0660F771F881FBB1F3E
S1130820621773078407BA0720F0621B730B840BEB
S1130830BA0BEE1F88F7E09508950E94240468948B
S1130840B1110C94DB0408950E94C00488F09F57F2
S113085098F0B92F9927B751B0F0E1F0660F771FE0
S1130860881F991F1AF0BA95C9F714C0B13091F0D6
S11308700E94DA04B1E008950C94DA04672F782F0B
S11308808827B85F39F0B93FCCF38695779567959B
S1130890B395D9F73EF490958095709561957F4F07
S11308A08F4F9F4F0895E89409C097FB3EF49095AD
S11308B08095709561957F4F8F4F9F4F9923A9F035
S11308C0F92F96E9BB279395F695879577956795C4
S11308D0B795F111F8CFFAF4BB0F11F460FF1BC008
S11308E06F5F7F4F8F4F9F4F16C0882311F096E99B
S11308F011C0772321F09EE8872F762F05C0662349
S113090071F096E8862F70E060E02AF09A95660F01
S1130910771F881FDAF7880F9695879597F90895BA
S113092097F99F6780E870E060E008959FEF80EC9E
S1130930089500240A941616170618060906089541
S113094000240A9412161306140605060895092EA7
S11309500394000C11F4882352F0BB0F40F4BF2B16
S113096011F460FF04C06F5F7F4F8F4F9F4F089556
S113097057FD9058440F551F59F05F3F71F047954C
S1130980880F97FB991F61F09F3F79F08795089531
S1130990121613061406551FF2CF4695F1DF08C050
S11309A0161617061806991FF1CF8695710561056D
S11309B008940895E894BB2766277727CB0197F915
S11309C008950E94F4040C94A7040E94990438F03A
S11309D00E94A00420F0952311F00C9490040C9430
S11309E0960411240C94DB040E94B80470F3959FC0
S11309F0C1F3950F50E0551F629FF001729FBB2712
S1130A00F00DB11D639FAA27F00DB11DAA1F649FAD
S1130A106627B00DA11D661F829F2227B00DA11D60
S1130A20621F739FB00DA11D621F839FA00D611DE6
S1130A30221F749F3327A00D611D231F849F600D07
S1130A40211D822F762F6A2F11249F5750409AF030
S1130A50F1F088234AF0EE0FFF1FBB1F661F771FBC
S1130A60881F91505040A9F79E3F510580F00C9487
S1130A7090040C94DB045F3FE4F3983ED4F3869532
S1130A8077956795B795F795E7959F5FC1F7FE2B27
S1130A90880F911D9695879597F9089597FB072ED2
S1130AA016F4009407D077FD09D00E94620507FC74
S1130AB005D03EF4909581959F4F0895709561956A
S1130AC07F4F0895AA1BBB1B51E107C0AA1FBB1F80
S1130AD0A617B70710F0A61BB70B881F991F5A95C6
S1130AE0A9F780959095BC01CD0108954532510533
S1130AF020F4423010F00C948105FB011082CB01EC
S1130B000895BB274A3031F4992322F4BDE290952D
S1130B1081959F4F0C948D05BB27FB015527AA2770
S1130B20880F991FAA1FA41710F0A41B8395505176
S1130B30B9F7A05DAA3308F0A95DA193009779F7EE
S1130B40B111B1931192CB010C94D6050F931F935D
S1130B50CF93DF93E0918301F0918401238121FFFE
S1130B601BC08C01D0E0C0E0F80181918F0160913D
S1130B70830170918401DB011896ED91FC91199722
S1130B80882331F00995892B79F3DFEFCFEFECCF90
S1130B908AE00995892B19F08FEF9FEF02C08D2F02
S1130BA09C2FDF91CF911F910F910895DC01FC01DF
S1130BB0672F71917723E1F7329704C07C916D938D
S1130BC070836291AE17BF07C8F30895F894FFCFFE
S1130BD03738392F3435362A3132332D20303D2BF6
S1130BE0312E4F686D002020322E566F6C74002019
S1130BF020332E416D6D65746572002020004368BA
S1130C006F6F7365204D6F6465203A2000312E416B
S1130C104300202020322E444300303A302D3576D4
S1130C202000313A302D3230762000323A302D32E5
S1130C3030307600333A302D32303030760045781B
S1130C406974696E672070726F6772616D2E2E2EE3
S1130C5000496E76616C69642063686F6963652E10
S1130C6020506C6561736520656E74657220612027
S1130C706E756D626572206265747765656E20318C
S1130C8020616E6420342E00696E204B6F686D7392
S1130C902069733A2000696E206F686D7320697350
S1130CA03A20007468652076616C7565206973204C
S1130CB0002062656C6F772035306F686D200045C9
S10B0CC072726F722021000022
S9030000FC
