:100000000C942A000C9447000C9447000C94470071
:100010000C9447000C9447000C9447000C94470044
:100020000C9447000C9447000C9447000C94470034
:100030000C9447000C9447000C9447000C94470024
:100040000C9447000C9447000C9447000C94470014
:100050000C94470011241FBECFE5D8E0DEBFCDBF12
:1000600011E0A0E6B0E0E2E2F9E102C005900D92F5
:10007000AA38B107D9F721E0AAE8B1E001C01D9282
:10008000A93BB207E1F70E9473040C948F0C0C9407
:1000900000001ABA87B1806487B986B1806886B9D2
:1000A00086B1806486B986B1876086B9089597B1B4
:1000B000907F97B997B1892B87B986B1806486B94B
:1000C0003699FECF84B195B1089588BB82B38F7DF8
:1000D00082BB82B38F7B82BB82B3806882BB8FE995
:1000E0009FE00197F1F700C0000082B38F7782BBD9
:1000F00008958FEF87BB81BB88E30E9465008FE97D
:100100009FE00197F1F700C0000081E00E946500C8
:100110008FE99FE00197F1F700C0000082E00E94A4
:1001200065008FE99FE00197F1F700C0000086E0CD
:100130000E9465008FE99FE00197F1F700C0000081
:1001400080E80E9465008FE99FE00197F1F700C009
:1001500000008FE39CE90197F1F700C000008CE0FC
:100160000E9465008FE39CE90197F1F700C0000051
:10017000089588BB82B3806282BB82B38F7B82BBCF
:1001800082B3806882BB8FE99FE00197F1F700C0DE
:10019000000082B38F7782BB0895882321F08130DD
:1001A00021F080E003C080E801C080EC603108F4F9
:1001B000860F0E9465000895EF92FF920F931F93A0
:1001C000CF93DF93CDB7DEB72A970FB6F894DEBF93
:1001D0000FBECDBFFE0131962AE0DF011D922A95A8
:1001E000E9F720E2298320E030E00AC0E1E0F0E016
:1001F000EC0FFD1FE20FF31F50E250832F5F3F4FC4
:10020000E42EF12C2E153F058CF39F938F937F9353
:100210006F9380E790E09F938F93CE0101969F9319
:100220008F930E9495090FB6F894DEBF0FBECDBF25
:1002300000E010E015C0E1E0F0E0EC0FFD1FE00F82
:10024000F11F80818E3241F090ED980F9A3020F0AE
:1002500080E20E94B90002C00E94B9000F5F1F4FE8
:100260000E151F0544F32A960FB6F894DEBF0FBE95
:10027000CDBFDF91CF911F910F91FF90EF90089527
:10028000CF93C82F0E9479000E9449008FEF8ABB4C
:100290008BBB8AB38E7F8ABBC13321F48BB38F7D36
:1002A0008BBB05C0C23319F48BB380628BBBCF917B
:1002B0000895CF92DF92EF92FF92CF93C82F862FAF
:1002C0000E944001C13389F48BB3877F8BBB8BB312
:1002D0008F7E8BBB0F2EFAE0CF2EF7EDDF2EF3EAE9
:1002E000EF2EF6E3FF2EF02D23C0C23389F48BB33B
:1002F00088608BBB8BB38F7E8BBB0F2EFDECCF2E1C
:10030000FCECDF2EFCE4EF2EF8E3FF2EF02D10C006
:10031000C33321F58BB388608BBB8BB380618BBB00
:100320000F2EC12CD12CF0E8EF2EFBE3FF2EF02D89
:1003300060E081E00E94CD0081E00E945700BC0196
:1003400080E090E00E94C5079B01AC01C701B601A7
:100350000E94530846E00E94DC00EACF80E0CF9183
:10036000FF90EF90DF90CF9008950F931F93CF935E
:10037000DF93182FC62FD42F842F0E949D0481B3A2
:10038000806181BB81B3826081BB81B3816081BBAD
:1003900081B3846081BB81B3886081BB113039F443
:1003A00081B3806181BB82B38F7E82BB08C0111193
:1003B00006C081B3806181BB82B3806182BBC130E2
:1003C00081F028F0C230B9F0C330F9F02AC082B30E
:1003D0008B7F82BB82B38D7F82BB82B3886082BBFE
:1003E00020C082B3886082BB82B3846082BB82B348
:1003F0008D7F82BB16C082B3886082BB82B38B7F45
:1004000082BB82B3826082BB0CC081B38D7F81BB13
:1004100081B38B7F81BB82B3877F82BB82B38E7FA8
:1004200082BB00E010E0B8018D2F0E94B804F801F3
:1004300060817181072E000C880B990B0E94C70701
:1004400020E030E040EA5BE30E945308C23059F0FC
:10045000C33081F0C130A1F424EE38E34EE850E41B
:100460000E9453080DC02CE137EC41E352E40E9496
:10047000530806C024EE38E34EED53E40E945308BF
:1004800020E041E00E946603DF91CF911F910F9120
:10049000089580EF84BB8FEF85BB85B38F7085BBDC
:1004A000000083B38F7080938A018F30B1F787E8A3
:1004B00093E10197F1F700C0000083B38F70809340
:1004C0008A018F30A1F38FE097E20197F1F700C026
:1004D000000083B38F7080938A018F3041F38FEED9
:1004E00085BB000083B38F7080938A018F3019F031
:1004F00010928B0127C08FED85BB000083B38F70F6
:1005000080938A018F3021F081E080938B011AC0A3
:100510008FEB85BB000083B38F7080938A018F308F
:1005200021F082E080938B010DC08FE785BB000036
:1005300083B38F7080938A018F3009F4AACF83E050
:1005400080938B0180918A018E3059F4E0918B0168
:10055000F0E0EE0FFF1FEE0FFF1FE05AFF4F80810C
:1005600008958D3059F4E0918B01F0E0EE0FFF1FFC
:10057000EE0FFF1FE05AFF4F818108958B3059F431
:10058000E0918B01F0E0EE0FFF1FEE0FFF1FE05A2E
:10059000FF4F82810895E0918B01F0E0EE0FFF1F85
:1005A000EE0FFF1FE05AFF4F8381089588BB82B38F
:1005B0008F7D82BB82B38F7B82BB82B3806882BB1C
:1005C00089EF90E00197F1F700C0000082B38F77C8
:1005D00082BB089588BB82B3806282BB82B38F7B6B
:1005E00082BB82B3806882BB89EF90E00197F1F70C
:1005F00000C0000082B38F7782BB0895882321F06A
:10060000813021F080E003C080E801C080EC6031DF
:1006100008F4860F0E94D6020895EF92FF920F937E
:100620001F93CF93DF93CDB7DEB72A970FB6F89419
:10063000DEBF0FBECDBFDC019E012F5F3F4F8AE0C2
:10064000F90111928A95E9F780E2898320E030E090
:100650000AC0E1E0F0E0EC0FFD1FE20FF31F90E2B3
:1006600090832F5F3F4FE62EF12C2E153F058CF324
:100670004AE050E0BE016F5F7F4FCD010E94350917
:1006800000E010E013C0E1E0F0E0EC0FFD1FE00F30
:10069000F11F808190ED980F9A3020F080E20E9447
:1006A000EA0202C00E94EA020F5F1F4F0E151F05EB
:1006B00054F32A960FB6F894DEBF0FBECDBFDF917C
:1006C000CF911F910F91FF90EF9008958F929F927D
:1006D000AF92BF92CF92DF92EF92FF921F93CF9390
:1006E000DF934B015C01D42F122F0E948F076B0107
:1006F0007C01CB010E949C06C82F612F8D2F0E9488
:10070000FE026C2FC6010E940D03C10F6C2F8D2FAE
:100710000E94FE028EE20E94EA0261E06C0F8D2FC1
:100720000E94FE02B601DD0C880B990B0E94C707E0
:100730009B01AC01C501B4010E94B00620E030E08D
:1007400048EC52E40E9453080E94C0080E94960799
:10075000DC01CB0162E00E940D03DF91CF911F917C
:10076000FF90EF90DF90CF90BF90AF909F908F90D1
:10077000089586E790E00E9426058CE790E00E94AD
:10078000260560E070E081E090E00E94430585E886
:1007900090E00E9426050E9449020895CF930E948E
:1007A0003C050E94CD0581E990E00E9426050E944B
:1007B0004902C82F893311F40E943C05C933B9F7A7
:1007C000CF910895CF93DF930E943C0584E990E098
:1007D0000E94260560E070E081E090E00E94430501
:1007E00083EA90E00E94260588EA90E00E942605B0
:1007F0000E944902C82F0E943C0580EB90E00E94B5
:10080000260588EB90E00E94260560E070E081E01C
:1008100090E00E94430581EC90E00E9426058AEC5E
:1008200090E00E9426050E944902D82F0E943C05B4
:1008300084ED90E00E94260540E06D2F8C2F0E94F1
:10084000B5010E944902C82F893311F40E943C056A
:10085000C933B9F7DF91CF910895CF93DF930E9409
:100860003C0584E990E00E94260560E070E081E0AC
:1008700090E00E94430583EA90E00E94260588EA02
:1008800090E00E9426050E944902D82F0E943C0554
:1008900084EE90E00E9426058EEE90E00E942605F0
:1008A00060E070E081E090E00E94430588EF90E016
:1008B0000E9426050E944902C82F0E943C0584ED33
:1008C00090E00E9426056D2F8C2F0E9459010E94F6
:1008D0004902C82F893311F40E943C05C933B9F786
:1008E000DF91CF9108958AB380688ABB8BB380680B
:1008F0008BBB0E9452050E940D050E94B9038233F2
:1009000061F018F4813331F013C0833349F084333C
:1009100051F00EC00E94CE03F0CF0E94E203EDCF53
:100920000E942D04EACF81E091E00E946509E5CFA5
:1009300084E191E00E946509E0CF9AB321E030E0C4
:1009400002C0220F331F8A95E2F7209529232ABB84
:1009500087B1806487B986B1806886B986B18460C2
:1009600086B986B1826086B986B1816086B90895FC
:1009700097B18F70982B97B986B1806486B9349BF4
:10098000FECF24B185B190E0982F8827822BFB0100
:1009900091838083089588BB82B38F7D82BB82B3AD
:1009A0008F7B82BB82B3806882BB82E08A95F1F73D
:1009B00000C082B38F7782BB8FE697E10197F1F792
:1009C00000C00000089588BB82B3806282BB82B3FE
:1009D0008F7B82BB82B3806882BB8DE08A95F1F702
:1009E000000082B38F7782BB8FE097E20197F1F727
:1009F00000C00000089588BB82B3806282BB82B3CE
:100A00008F7B82BB82B3806882BB8DE08A95F1F7D1
:100A1000000082B38F7782BB08958FEF81BB87BBC5
:100A20008FE39CE90197F1F700C0000088E30E9482
:100A3000CB048CE00E94CB0486E00E94CB0481E0D2
:100A40000E94CB0480E80E94CB0408950F931F936B
:100A5000CF93DF938C01C0E0D0E003C00E94E30499
:100A60002196F801EC0FFD1F80818111F7CFDF91F6
:100A7000CF911F910F91089581E00E94CB0480E8EF
:100A80000E94CB040895882321F0813021F080E07A
:100A900003C080E801C080EC603108F4860F0E943A
:100AA000CB0408958AB3887F8ABB8AB3886F8ABBD8
:100AB0008BB380688BBB87E886B980E487B90895DB
:100AC00097B18F70982B97B986B1806486B9349BA3
:100AD000FECF8AE18A95F1F700C024B185B190E09C
:100AE000982F8827820F911D0895EF92FF920F9300
:100AF0001F93CF93DF93CDB7DEB72A970FB6F89445
:100B0000DEBF0FBECDBFDC017B019E012F5F3F4FDB
:100B10008AE0F90111928A95E9F780E2898320E061
:100B200030E00AC0E1E0F0E0EC0FFD1FE20FF31F40
:100B300090E290832F5F3F4F2E153F0598F34AE0D8
:100B400050E0BE016F5F7F4FCD010E94350900E08C
:100B500010E013C0E1E0F0E0EC0FFD1FE00FF11F2B
:100B6000808190ED980F9A3020F080E20E94FB0483
:100B700002C00E94FB040F5F1F4F0E151F0550F3AC
:100B80002A960FB6F894DEBF0FBECDBFDF91CF918E
:100B90001F910F91FF90EF90089582E00E946005F1
:100BA0009093B2018093B1018A3191050CF041C05C
:100BB000BC01990F880B990B0E94C70720E030E019
:100BC00040EA50E40E94530820E030EC4FE754E440
:100BD0000E941D079B01AC016093AD017093AE01B3
:100BE0008093AF019093B00160E070E080EA90E400
:100BF0000E941D0720E030E040E351E40E94B0066F
:100C00000E948F0770938D0160938C0180E80E9491
:100C1000CB048BE491E00E94260580EC0E94CB047B
:100C200066E070E080918C0190918D010E947505C5
:100C30000895BC01990F880B990B0E94C70720E00B
:100C400030E040EA50E40E94530820E030EC4FE7E7
:100C500054E40E941D076093AD017093AE01809330
:100C6000AF019093B00120E030E04AE754E40E94E5
:100C70001D079B01AC0160E070E080EA90E40E94F7
:100C80001D0720E030EE4BE256E40E94B0060E94C1
:100C90008F079B0170938D0160938C0161507109E6
:100CA0006F30774298F480E80E94CB0489E591E0A8
:100CB0000E94260580EC0E94CB0466E070E08091E3
:100CC0008C0190918D010E9475050895213187E274
:100CD0003807C4F080E80E94CB048BE491E00E94C6
:100CE000260580EC0E94CB0480918C0190918D01AF
:100CF00068EE73E00E940D09CB0166E070E00E948F
:100D000075050895223331057CF480E80E94CB04F8
:100D100086E691E00E94260580EC0E94CB0484E7E1
:100D200091E00E942605089580E80E94CB0482E8A5
:100D300091E00E9426050895009779F020E030E0C8
:100D400007C06AE070E00E940D09CB012F5F3F4FA2
:100D50000097B9F7822F932F089581E090E00895CE
:100D60005058BB27AA270E94C8060C9419080E9455
:100D70000B0838F00E94120820F039F49F3F19F454
:100D800026F40C9408080EF4E095E7FB0C94020896
:100D9000E92F0E942A0858F3BA17620773078407DD
:100DA000950720F079F4A6F50C944C080EF4E09524
:100DB0000B2EBA2FA02D0B01B90190010C01CA0115
:100DC000A0011124FF27591B99F0593F50F4503EC0
:100DD00068F11A16F040A22F232F342F4427585FB2
:100DE000F3CF469537952795A795F0405395C9F7CA
:100DF0007EF41F16BA0B620B730B840BBAF0915082
:100E0000A1F0FF0FBB1F661F771F881FC2F70EC020
:100E1000BA0F621F731F841F48F4879577956795F3
:100E2000B795F7959E3F08F0B0CF9395880F08F0DF
:100E30009927EE0F9795879508950E9431070C9496
:100E400019080E94120858F00E940B0840F029F47B
:100E50005F3F29F00C94020851110C944D080C943A
:100E600008080E942A0868F39923B1F3552391F3E7
:100E7000951B550BBB27AA2762177307840738F009
:100E80009F5F5F4F220F331F441FAA1FA9F335D066
:100E90000E2E3AF0E0E832D091505040E695001C1A
:100EA000CAF72BD0FE2F29D0660F771F881FBB1FD4
:100EB000261737074807AB07B0E809F0BB0B802DB2
:100EC000BF01FF2793585F4F3AF09E3F510578F0DE
:100ED0000C9402080C944D085F3FE4F3983ED4F361
:100EE000869577956795B795F7959F5FC9F7880FB2
:100EF000911D9695879597F90895E1E0660F771F04
:100F0000881FBB1F621773078407BA0720F0621B94
:100F1000730B840BBA0BEE1F88F7E09508950E94BF
:100F200096076894B1110C944D0808950E943208F8
:100F300088F09F5798F0B92F9927B751B0F0E1F09A
:100F4000660F771F881F991F1AF0BA95C9F714C04A
:100F5000B13091F00E944C08B1E008950C944C0817
:100F6000672F782F8827B85F39F0B93FCCF3869583
:100F700077956795B395D9F73EF4909580957095E0
:100F800061957F4F8F4F9F4F0895E89409C097FB5D
:100F90003EF490958095709561957F4F8F4F9F4F50
:100FA0009923A9F0F92F96E9BB279395F695879594
:100FB00077956795B795F111F8CFFAF4BB0F11F457
:100FC00060FF1BC06F5F7F4F8F4F9F4F16C08823FE
:100FD00011F096E911C0772321F09EE8872F762F34
:100FE00005C0662371F096E8862F70E060E02AF075
:100FF0009A95660F771F881FDAF7880F9695879561
:1010000097F9089597F99F6780E870E060E0089588
:101010009FEF80EC089500240A9416161706180610
:101020000906089500240A941216130614060506EC
:101030000895092E0394000C11F4882352F0BB0F7D
:1010400040F4BF2B11F460FF04C06F5F7F4F8F4FE0
:101050009F4F089557FD9058440F551F59F05F3F1B
:1010600071F04795880F97FB991F61F09F3F79F0CA
:1010700087950895121613061406551FF2CF46954C
:10108000F1DF08C0161617061806991FF1CF8695CE
:101090007105610508940895E894BB2766277727B2
:1010A000CB0197F908950E9466080C9419080E94D4
:1010B0000B0838F00E94120820F0952311F00C94D0
:1010C00002080C94080811240C944D080E942A0868
:1010D00070F3959FC1F3950F50E0551F629FF0018B
:1010E000729FBB27F00DB11D639FAA27F00DB11DA4
:1010F000AA1F649F6627B00DA11D661F829F22272D
:10110000B00DA11D621F739FB00DA11D621F839FB3
:10111000A00D611D221F749F3327A00D611D231F89
:10112000849F600D211D822F762F6A2F11249F57D7
:1011300050409AF0F1F088234AF0EE0FFF1FBB1FDA
:10114000661F771F881F91505040A9F79E3F510599
:1011500080F00C9402080C944D085F3FE4F3983E35
:10116000D4F3869577956795B795F795E7959F5F43
:10117000C1F7FE2B880F911D9695879597F90895D5
:101180000E943208E8F09E37E8F09639B8F49E38AD
:1011900048F4672F782F8827985FF9CF8695779541
:1011A000679593959539D0F3B62FB1706B0F711D7C
:1011B000811D20F487957795679593950C94E408A5
:1011C0000C94FF080C944D08882371F4772321F0C8
:1011D0009850872B762F07C0662311F499270DC0EE
:1011E0009051862B70E060E02AF09A95660F771F89
:1011F000881FDAF7880F9695879597F908959F3F8E
:1012000031F0915020F4879577956795B795880FC1
:10121000911D9695879597F9089597FB072E16F4DB
:10122000009407D077FD09D00E94210907FC05D062
:101230003EF4909581959F4F0895709561957F4FED
:101240000895AA1BBB1B51E107C0AA1FBB1FA6170D
:10125000B70710F0A61BB70B881F991F5A95A9F75F
:1012600080959095BC01CD0108954532510520F43B
:10127000423010F00C944009FB011082CB0108951C
:10128000BB274A3031F4992322F4BDE29095819531
:101290009F4F0C944C09BB27FB015527AA27880FA9
:1012A000991FAA1FA41710F0A41B83955051B9F7DA
:1012B000A05DAA3308F0A95DA193009779F7B11159
:1012C000B1931192CB010C94AE0B0F931F93CF935C
:1012D000DF93E091B501F091B601238121FF1BC09E
:1012E0008C01D0E0C0E0F80181918F016091B501DF
:1012F0007091B601DB011896ED91FC911997882346
:1013000031F00995892B79F3DFEFCFEFECCF8AE04D
:101310000995892B19F08FEF9FEF02C08D2F9C2F1D
:10132000DF91CF911F910F910895AEE0B0E0EBE90E
:10133000F9E00C94660C0D891E8986E08C831A8373
:1013400009838FEF9FE79E838D83AE01475E5F4FDA
:101350006F89788DCE0101960E94B709EF81F885DB
:10136000E00FF11F10822E96E4E00C94820CABE0AB
:10137000B0E0EDEBF9E00C94580C6C017B018A01B4
:10138000FC0117821682838181FFCCC1CE010196B8
:101390003C01F6019381F70193FD859193FF8191C3
:1013A0007F01882309F4BAC1853239F493FD859110
:1013B00093FF81917F01853229F4B60190E00E946C
:1013C000BE0BE7CF912C212C312CFFE1F315D8F087
:1013D0008B3279F038F4803279F08332A1F4232D06
:1013E00020611DC08D3261F0803369F4232D2160AE
:1013F00016C0832D8260382EE32DE4603E2E2AC075
:10140000F32DF8601DC037FC2DC020ED280F2A30C9
:1014100040F08E32B9F436FC81C1232D2064322E87
:1014200019C036FE06C08AE0989E200D1124922E27
:1014300011C0EAE02E9E200D1124222EF32DF06221
:101440003F2E08C08C3621F4832D8068382E02C0D0
:10145000883641F4F70193FD859193FF81917F01D7
:101460008111B3CF982F9F7D9554933028F40C5F52
:101470001F4F9FE399830DC0833631F0833771F09E
:10148000833509F059C021C0F801808189830E5F3E
:101490001F4F88248394912C530113C02801F2E03C
:1014A0004F0E511CF801A080B18036FE03C0692D9B
:1014B00070E002C06FEF7FEFC5010E94A30B4C01EB
:1014C0008201F32DFF773F2E16C0280122E0420E45
:1014D000511CF801A080B18036FE03C0692D70E078
:1014E00002C06FEF7FEFC5010E94980B4C01F32DF6
:1014F000F0683F2E820133FC1BC0822D90E08816DD
:101500009906B0F4B60180E290E00E94BE0B2A94E6
:10151000F4CFF50137FC859137FE81915F01B6016B
:1015200090E00E94BE0B21102A9421E0821A9108BB
:101530008114910471F7E8C0843611F0893641F5C1
:10154000F80137FE07C060817181828193810C5F51
:101550001F4F08C060817181072E000C880B990B0A
:101560000E5F1F4FF32DFF763F2E97FF09C090951A
:101570008095709561957F4F8F4F9F4FF0683F2EFC
:101580002AE030E0A3010E94FA0B882E861845C09D
:10159000853731F4232D2F7EB22E2AE030E025C08E
:1015A000932D997FB92E8F36C1F018F4883579F0D4
:1015B000B5C0803719F0883721F0B0C0E92FE0615D
:1015C000BE2EB4FE0DC0FB2DF460BF2E09C034FE4C
:1015D0000AC0292F2660B22E06C028E030E005C0E0
:1015E00020E130E002C020E132E0F801B7FE07C0A0
:1015F00060817181828193810C5F1F4F06C0608181
:10160000718180E090E00E5F1F4FA3010E94FA0BF2
:10161000882E8618FB2DFF773F2E36FE0DC0232D1A
:101620002E7FA22E891458F434FE0BC032FC09C060
:10163000832D8E7EA82E05C0B82CA32C03C0B82CF9
:1016400001C0B92CA4FE0FC0FE01E80DF11D808180
:10165000803321F49A2D997EA92E09C0A2FE06C0DE
:10166000B394B39404C08A2D867809F0B394A3FC94
:1016700011C0A0FE06C0B21488F4280C922C9B184E
:101680000EC0B21460F4B60180E290E00E94BE0B7E
:10169000B394F7CFB21418F42B1802C0982C212C55
:1016A000A4FE10C0B60180E390E00E94BE0BA2FE33
:1016B00017C0A1FC03C088E790E002C088E590E075
:1016C000B6010CC08A2D867859F0A1FE02C08BE2CB
:1016D00001C080E2A7FC8DE2B60190E00E94BE0B43
:1016E000891438F4B60180E390E00E94BE0B9A940E
:1016F000F7CF8A94F301E80DF11D8081B60190E0E7
:101700000E94BE0B8110F5CF222009F442CEB60113
:1017100080E290E00E94BE0B2A94F6CFF60186810B
:10172000978102C08FEF9FEF2B96E2E10C94740C2F
:10173000FC010590615070400110D8F7809590959C
:101740008E0F9F1F0895FC016150704001900110A1
:10175000D8F7809590958E0F9F1F0895DC01FC01AE
:10176000672F71917723E1F7329704C07C916D93D5
:1017700070836291AE17BF07C8F308950F931F934C
:10178000CF93DF93FB01238121FD03C08FEF9FEFF8
:101790002CC022FF16C04681578124813581421713
:1017A000530744F4A081B1819D012F5F3F4F3183E6
:1017B00020838C93268137812F5F3F4F3783268389
:1017C00014C08B01EC01FB010084F185E02D09952B
:1017D000892BE1F6D80116968D919C911797019669
:1017E00017969C938E931697CE01DF91CF911F9100
:1017F0000F910895FA01AA27283051F1203181F183
:10180000E8946F936E7F6E5F7F4F8F4F9F4FAF4F08
:10181000B1E03ED0B4E03CD0670F781F891F9A1F1B
:10182000A11D680F791F8A1F911DA11D6A0F711DCF
:10183000811D911DA11D20D009F468943F912AE0DB
:10184000269F11243019305D3193DEF6CF010895C3
:10185000462F4770405D4193B3E00FD0C9F7F6CFF4
:10186000462F4F70405D4A3318F0495D31FD4052BC
:10187000419302D0A9F7EACFB4E0A6959795879552
:1018800077956795BA95C9F7009761057105089531
:101890009B01AC010A2E06945795479537952795DD
:1018A000BA95C9F7620F731F841F951FA01D089575
:1018B0002F923F924F925F926F927F928F929F9260
:1018C000AF92BF92CF92DF92EF92FF920F931F934E
:1018D000CF93DF93CDB7DEB7CA1BDB0B0FB6F894FF
:1018E000DEBF0FBECDBF09942A88398848885F843F
:1018F0006E847D848C849B84AA84B984C884DF80B0
:10190000EE80FD800C811B81AA81B981CE0FD11D93
:101910000FB6F894DEBF0FBECDBFED010895F89469
:02192000FFCFF7
:101922003738392F3435362A3132332D20303D2B9A
:1019320025342E336600312E4F686D002020322E62
:10194200566F6C74002020332E416D6D6574657284
:101952000020200043686F6F7365204D6F6465201F
:101962003A2000312E414300202020322E444300F1
:10197200303A302D35762000313A302D3230762013
:1019820000323A302D3230307600333A302D323058
:10199200303076005468652076616C756520697315
:1019A200203A2000313A302D35206D412000323A64
:1019B200302D3530206D4100333A302D34206D41C9
:1019C2000045786974696E672070726F6772616D25
:1019D2002E2E2E00496E76616C69642063686F69F1
:1019E20063652E20506C6561736520656E74657247
:1019F2002061206E756D626572206265747765651F
:101A02006E203120616E6420342E00696E204B6F8F
:101A1200686D732069733A2000696E206F686D7378
:101A22002069733A20007468652076616C756520C0
:101A3200697320002062656C6F772035306F686DA6
:0A1A420020004572726F722021002F
:00000001FF
