S0190000496E74657266616374696E675F56302E312E73726563E9
S11300000C94A7000C94C4000C94C4000C94C40079
S11300100C94C4000C94C4000C94C4000C94C4004C
S11300200C94C4000C94C4000C94C4000C94C4003C
S11300300C94C4000C94C4000C94C4000C94C4002C
S11300400C94C4000C94C4000C94C4000C94C4001C
S11300500C94C40000407A10F35A00A0724E1809A0
S11300600010A5D4E80000E87648170000E40B541B
S1130070020000CA9A3B000000E1F50500008096EA
S11300809800000040420F000000A086010000001C
S1130090102700000000E8030000000064000000D6
S11300A000000A00000000000100000000002C769F
S11300B0D888DC674F0823DFC1DFAE59E1B1B796BA
S11300C0E5E3E453C63AE651997696E8E6C2842617
S11300D0EB898C9B62ED407C6FFCEFBC9C9F40F2F3
S11300E0BAA56FA5F490055A2AF75C936B6CF9676F
S11300F06DC11BFCE0E40D47FEF520E6B500D0ED34
S1130100902E0300943577050080841E080000209B
S11301104E0A000000C80C333333330F986E128339
S11301201141EF8D2114893BE65516CFFEE6DB180D
S1130130D1844B381BF77C1D901DA4BBE4242032D2
S113014084725E228100C9F124ECA1E53D271124CB
S11301501FBECFE5D8E0DEBFCDBF11E0A0E6B0E022
S1130160ECEAF9E102C005900D92A83AB107D9F77B
S113017021E0A8EAB1E001C01D92A73DB207E1F772
S11301800E9419050C94D40C0C9400001ABA87B17F
S1130190806487B986B1806886B986B1806486B97F
S11301A086B1876086B9089597B1907F97B997B162
S11301B0892B87B986B1806486B93699FECF84B11C
S11301C095B1089588BB82B38F7D82BB82B38F7B48
S11301D082BB82B3806882BB8FE99FE00197F1F70D
S11301E000C0000082B38F7782BB08958FEF87BB76
S11301F081BB88E30E94E2008FE99FE00197F1F759
S113020000C0000081E00E94E2008FE99FE00197B6
S1130210F1F700C0000082E00E94E2008FE99FE055
S11302200197F1F700C0000086E00E94E2008FE928
S11302309FE00197F1F700C0000080E80E94E2000F
S11302408FE99FE00197F1F700C000008FE39CE97C
S11302500197F1F700C000008CE00E94E2008FE3F8
S11302609CE90197F1F700C00000089588BB82B3B0
S1130270806282BB82B38F7B82BB82B3806882BB85
S11302808FE99FE00197F1F700C0000082B38F77F8
S113029082BB0895882321F0813021F080E003C0DF
S11302A080E801C080EC603108F4860F90E00E9481
S11302B040030895EF92FF921F93CF93DF937C0145
S11302C0162FC0E0D0E00DC0F701EC0FFD1F8081B8
S11302D00E9436018FE99FE00197F1F700C000000A
S11302E02196812F90E0C817D90774F3DF91CF913D
S11302F01F91FF90EF9008950F931F93CF93DF9377
S1130300CDB7DEB764970FB6F894DEBF0FBECDBF8E
S1130310242F30E08E010F5F1F4F45E050E00E9414
S1130320DB0966E070E0C8010E945A0164960FB6CA
S1130330F894DEBF0FBECDBFDF91CF911F910F9117
S11303400895CF93C82F0E94F6000E94C60060E073
S113035080E00E944A0160E186E790E00E945A0131
S11303608FEF8ABB8BBB8AB38E7F8ABBC13021F4EB
S11303708BB38F7D8BBB03C08BB380628BBBCF9160
S11303800895CF92DF92EF92FF92CF93C82F862FDA
S11303900E94A101C13089F48BB3877F8BBB8BB3DF
S11303A08F7E8BBB0F2EFAE0CF2EF7EDDF2EF3EA14
S11303B0EF2EF6E3FF2EF02D23C0C23089F48BB369
S11303C088608BBB8BB38F7E8BBB0F2EFDECCF2E47
S11303D0FCECDF2EFCE4EF2EF8E3FF2EF02D10C032
S11303E0C33071F48BB388608BBB8BB380618BBBE0
S11303F00F2EC12CD12CF0E8EF2EFBE3FF2EF02DB5
S113040060E081E00E944A0180E00E94D400BC01C7
S113041080E090E00E946B089B01AC01C701B6012B
S11304200E94F90846E00E947C010E94B3028933CD
S113043039F7CF91FF90EF90DF90CF9008950F930D
S11304401F93CF93DF93182FC62FD42F842F0E948E
S1130450430581B3806181BB81B3826081BB81B379
S1130460816081BB81B3846081BB81B3886081BBBF
S1130470113039F481B3806181BB82B38F7E82BB3A
S113048008C0111106C081B3806181BB82B3806151
S113049082BBC13081F028F0C230B9F0C330F9F02A
S11304A02AC082B38B7F82BB82B38D7F82BB82B32F
S11304B0886082BB20C082B3886082BB82B38460C0
S11304C082BB82B38D7F82BB16C082B3886082BB3D
S11304D082B38B7F82BB82B3826082BB0CC081B348
S11304E08D7F81BB81B38B7F81BB82B3877F82BBCE
S11304F082B38E7F82BB00E010E0B8018D2F0E9492
S11305005E05F80160817181072E000C880B990B40
S11305100E946D0820E030E040EA5BE30E94F908A5
S1130520C23059F0C33081F0C130A1F424EE38E375
S11305304EE850E40E94F9080DC02CE137EC41E389
S113054052E40E94F90806C024EE38E34EED53E469
S11305500E94F90820E041E00E94D003DF91CF918E
S11305601F910F91089580EF84BB8FEF85BB85B3F6
S11305708F7085BB000083B38F708093A8018F3088
S1130580B1F787E893E10197F1F700C0000083B366
S11305908F708093A8018F30A1F38FE097E20197C9
S11305A0F1F700C0000083B38F708093A8018F30EF
S11305B041F38FEE85BB000083B38F708093A80155
S11305C08F3019F01092A90127C08FED85BB000070
S11305D083B38F708093A8018F3021F081E08093E2
S11305E0A9011AC08FEB85BB000083B38F70809381
S11305F0A8018F3021F082E08093A9010DC08FE71C
S113060085BB000083B38F708093A8018F3009F4F9
S1130610AACF83E08093A9018091A8018E3059F478
S1130620E091A901F0E0EE0FFF1FEE0FFF1FE05A6B
S1130630FF4F808108958D3059F4E091A901F0E0D5
S1130640EE0FFF1FEE0FFF1FE05AFF4F8181089549
S11306508B3059F4E091A901F0E0EE0FFF1FEE0F8B
S1130660FF1FE05AFF4F82810895E091A901F0E055
S1130670EE0FFF1FEE0FFF1FE05AFF4F8381089517
S113068088BB82B38F7D82BB82B38F7B82BB82B3F4
S1130690806882BB89EF90E00197F1F700C0000009
S11306A082B38F7782BB089588BB82B3806282BB9A
S11306B082B38F7B82BB82B3806882BB89EF90E078
S11306C00197F1F700C0000082B38F7782BB0895D1
S11306D0882321F0813021F080E003C080E801C04C
S11306E080EC603108F4860F0E9440030895EF9275
S11306F0FF920F931F93CF93DF93CDB7DEB72A9763
S11307000FB6F894DEBF0FBECDBFDC019E012F5F94
S11307103F4F8AE0F90111928A95E9F780E28983D3
S113072020E030E00AC0E1E0F0E0EC0FFD1FE20F52
S1130730F31F90E290832F5F3F4FE62EF12C2E158E
S11307403F058CF34AE050E0BE016F5F7F4FCD015F
S11307500E94FB0900E010E013C0E1E0F0E0EC0FC0
S1130760FD1FE00FF11F808190ED980F9A3020F06B
S113077080E20E94540302C00E9454030F5F1F4F83
S11307800E151F0554F32A960FB6F894DEBF0FBE5C
S1130790CDBFDF91CF911F910F91FF90EF900895FE
S11307A08F929F92AF92BF92CF92DF92EF92FF927D
S11307B01F93CF93DF934B015C01D42F122F0E9420
S11307C035086B017C01CB010E944207C82F612FC1
S11307D08D2F0E9468036C2FC6010E947703C10FFE
S11307E06C2F8D2F0E9468038EE20E94540361E0F7
S11307F06C0F8D2F0E946803B601DD0C880B990BDA
S11308000E946D089B01AC01C501B4010E9456070A
S113081020E030E048EC52E40E94F9080E946609A6
S11308200E943C08DC01CB0162E00E947703DF9167
S1130830CF911F91FF90EF90DF90CF90BF90AF903A
S11308409F908F90089587E890E00E94CC058DE8F2
S113085090E00E94CC0560E070E081E090E00E94AE
S1130860E90586E990E00E94CC050E94B302089550
S1130870CF930E94E2050E94730682EA90E00E94F0
S1130880CC050E94B302C82F893311F40E94E205FB
S1130890C933B9F7CF910895CF93DF930E94E2054E
S11308A085EA90E00E94CC0560E070E081E090E091
S11308B00E94E90584EB90E00E94CC0589EB90E06E
S11308C00E94CC050E94B302C82F813321F08233E9
S11308D019F4C1E001C0C0E00E94E20581EC90E09F
S11308E00E94CC0589EC90E00E94CC0560E070E0A9
S11308F081E090E00E94E90582ED90E00E94CC0541
S11309008BED90E00E94CC050E94B302813349F044
S113091018F4803361F00CC0823329F0833329F05A
S113092007C0D1E005C0D2E003C0D3E001C0D0E0ED
S11309300E94E20585EE90E00E94CC0541E06D2F17
S11309408C2F0E941F020E94B302C82F893311F416
S11309500E94E205C933B9F7DF91CF9108950F934F
S11309601F93CF93DF930E94E20585EA90E00E94F3
S1130970CC0560E070E081E090E00E94E90585EF3D
S113098090E00E94CC058AEF90E00E94CC050E9482
S1130990B302C82F0E94E20582E091E00E94CC05D8
S11309A08CE091E00E94CC0560E070E081E090E092
S11309B00E94E90586E191E00E94CC050E94B30201
S11309C0D82F0E94E205D13349F018F4D03361F0F6
S11309D00CC0D23329F0D33329F007C011E005C08D
S11309E012E003C013E001C010E0C13349F018F471
S11309F0C03361F00CC0C23329F0C33329F007C0FF
S1130A0001E005C002E003C003E001C000E0602F84
S1130A10812F0E94C1010E94B302C82F893311F4AF
S1130A200E94E205C933B9F7DF91CF911F910F916D
S1130A3008958AB380688ABB8BB380688BBB0E949D
S1130A40F8050E94B3050E942304823361F018F470
S1130A50813331F013C0833349F0843351F00EC035
S1130A600E943804F0CF0E944C04EDCF0E94AF04E2
S1130A70EACF8FE191E00E942B0AE5CF82E391E077
S1130A800E942B0AE0CF9AB321E030E002C0220F8B
S1130A90331F8A95E2F7209529232ABB87B1806406
S1130AA087B986B1806886B986B1846086B986B113
S1130AB0826086B986B1816086B9089597B18F70D6
S1130AC0982B97B986B1806486B9349BFECF24B144
S1130AD085B190E0982F8827822BFB019183808336
S1130AE0089588BB82B38F7D82BB82B38F7B82BB28
S1130AF082B3806882BB82E08A95F1F700C082B33A
S1130B008F7782BB8FE697E10197F1F700C0000071
S1130B10089588BB82B3806282BB82B38F7B82BB21
S1130B2082B3806882BB8DE08A95F1F7000082B3BE
S1130B308F7782BB8FE097E20197F1F700C0000046
S1130B40089588BB82B3806282BB82B38F7B82BBF1
S1130B5082B3806882BB8DE08A95F1F7000082B38E
S1130B608F7782BB08958FEF81BB87BB8FE39CE9AE
S1130B700197F1F700C0000088E30E9471058CE042
S1130B800E94710586E00E94710581E00E94710552
S1130B9080E80E94710508950F931F93CF93DF930C
S1130BA08C01C0E0D0E003C00E9489052196F801C1
S1130BB0EC0FFD1F80818111F7CFDF91CF911F9141
S1130BC00F91089581E00E94710580E80E947105EB
S1130BD00895882321F0813021F080E003C080E86B
S1130BE001C080EC603108F4860F0E9471050895FD
S1130BF08AB3887F8ABB8AB3886F8ABB8BB38068C9
S1130C008BBB87E886B980E487B9089597B18F7064
S1130C10982B97B986B1806486B9349BFECF8AE15C
S1130C208A95F1F700C024B185B190E0982F882708
S1130C30820F911D0895EF92FF920F931F93CF930C
S1130C40DF93CDB7DEB72A970FB6F894DEBF0FBE99
S1130C50CDBFDC017B019E012F5F3F4F8AE0F9018C
S1130C6011928A95E9F780E2898320E030E00AC096
S1130C70E1E0F0E0EC0FFD1FE20FF31F90E2908340
S1130C802F5F3F4F2E153F0598F34AE050E0BE0119
S1130C906F5F7F4FCD010E94FB0900E010E013C09D
S1130CA0E1E0F0E0EC0FFD1FE00FF11F808190ED1B
S1130CB0980F9A3020F080E20E94A10502C00E94A1
S1130CC0A1050F5F1F4F0E151F0550F32A960FB68F
S1130CD0F894DEBF0FBECDBFDF91CF911F910F916E
S1130CE0FF90EF90089582E00E9406069093D00151
S1130CF08093CF018A3191050CF041C0BC01990F5A
S1130D00880B990B0E946D0820E030E040EA50E423
S1130D100E94F90820E030EC4FE754E40E94C30736
S1130D209B01AC016093CB017093CC018093CD0106
S1130D309093CE0160E070E080EA90E40E94C307E3
S1130D4020E030E040E351E40E9456070E94350859
S1130D507093AB016093AA0180E80E94710589E653
S1130D6091E00E94CC0580EC0E94710566E070E081
S1130D708091AA019091AB010E941B060895BC01C9
S1130D80990F880B990B0E946D0820E030E040EA2F
S1130D9050E40E94F90820E030EC4FE754E40E944C
S1130DA0C3076093CB017093CC018093CD019093E2
S1130DB0CE0120E030E04AE754E40E94C3079B01DF
S1130DC0AC0160E070E080EA90E40E94C30720E098
S1130DD030EE4BE256E40E9456070E9435089B0110
S1130DE07093AB016093AA01615071096F3077422F
S1130DF098F480E80E94710587E791E00E94CC0591
S1130E0080EC0E94710566E070E08091AA019091E7
S1130E10AB010E941B060895213187E23807C4F014
S1130E2080E80E94710589E691E00E94CC0580EC7F
S1130E300E9471058091AA019091AB0168EE73E064
S1130E400E94B309CB0166E070E00E941B0608957E
S1130E50223331057CF480E80E94710584E891E036
S1130E600E94CC0580EC0E94710582E991E00E9409
S1130E70CC05089580E80E94710580EA91E00E9403
S1130E80CC050895009779F020E030E007C06AE0CF
S1130E9070E00E94B309CB012F5F3F4F0097B9F771
S1130EA0822F932F089581E090E008955058BB2736
S1130EB0AA270E946E070C94BF080E94B10838F05C
S1130EC00E94B80820F039F49F3F19F426F40C94DA
S1130ED0AE080EF4E095E7FB0C94A808E92F0E94F5
S1130EE0D00858F3BA17620773078407950720F0F0
S1130EF079F4A6F50C94F2080EF4E0950B2EBA2FB3
S1130F00A02D0B01B90190010C01CA01A00111240B
S1130F10FF27591B99F0593F50F4503E68F11A16B7
S1130F20F040A22F232F342F4427585FF3CF469548
S1130F3037952795A795F0405395C9F77EF41F166A
S1130F40BA0B620B730B840BBAF09150A1F0FF0F34
S1130F50BB1F661F771F881FC2F70EC0BA0F621F20
S1130F60731F841F48F4879577956795B795F79510
S1130F709E3F08F0B0CF9395880F08F09927EE0FA5
S1130F809795879508950E94D7070C94BF080E94EF
S1130F90B80858F00E94B10840F029F45F3F29F0E6
S1130FA00C94A80851110C94F3080C94AE080E94F8
S1130FB0D00868F39923B1F3552391F3951B550B8E
S1130FC0BB27AA2762177307840738F09F5F5F4F18
S1130FD0220F331F441FAA1FA9F335D00E2E3AF057
S1130FE0E0E832D091505040E695001CCAF72BD06F
S1130FF0FE2F29D0660F771F881FBB1F26173707C0
S11310004807AB07B0E809F0BB0B802DBF01FF27F1
S113101093585F4F3AF09E3F510578F00C94A8081E
S11310200C94F3085F3FE4F3983ED4F386957795E8
S11310306795B795F7959F5FC9F7880F911D9695AA
S1131040879597F90895E1E0660F771F881FBB1F06
S1131050621773078407BA0720F0621B730B840BB3
S1131060BA0BEE1F88F7E09508950E943C08689437
S1131070B1110C94F30808950E94D80888F09F5782
S113108098F0B92F9927B751B0F0E1F0660F771FA8
S1131090881F991F1AF0BA95C9F714C0B13091F09E
S11310A00E94F208B1E008950C94F208672F782F9B
S11310B08827B85F39F0B93FCCF386957795679563
S11310C0B395D9F73EF490958095709561957F4FCF
S11310D08F4F9F4F0895E89409C097FB3EF4909575
S11310E08095709561957F4F8F4F9F4F9923A9F0FD
S11310F0F92F96E9BB279395F6958795779567958C
S1131100B795F111F8CFFAF4BB0F11F460FF1BC0CF
S11311106F5F7F4F8F4F9F4F16C0882311F096E962
S113112011C0772321F09EE8872F762F05C0662310
S113113071F096E8862F70E060E02AF09A95660FC9
S1131140771F881FDAF7880F9695879597F9089582
S113115097F99F6780E870E060E008959FEF80EC66
S1131160089500240A941616170618060906089509
S113117000240A9412161306140605060895092E6F
S11311800394000C11F4882352F0BB0F40F4BF2BDE
S113119011F460FF04C06F5F7F4F8F4F9F4F08951E
S11311A057FD9058440F551F59F05F3F71F0479514
S11311B0880F97FB991F61F09F3F79F087950895F9
S11311C0121613061406551FF2CF4695F1DF08C018
S11311D0161617061806991FF1CF86957105610535
S11311E008940895E894BB2766277727CB0197F9DD
S11311F008950E940C090C94BF080E94B10838F0AD
S11312000E94B80820F0952311F00C94A8080C94BF
S1131210AE0811240C94F3080E94D00870F3959F33
S1131220C1F3950F50E0551F629FF001729FBB27D9
S1131230F00DB11D639FAA27F00DB11DAA1F649F75
S11312406627B00DA11D661F829F2227B00DA11D28
S1131250621F739FB00DA11D621F839FA00D611DAE
S1131260221F749F3327A00D611D231F849F600DCF
S1131270211D822F762F6A2F11249F5750409AF0F8
S1131280F1F088234AF0EE0FFF1FBB1F661F771F84
S1131290881F91505040A9F79E3F510580F00C944F
S11312A0A8080C94F3085F3FE4F3983ED4F38695C2
S11312B077956795B795F795E7959F5FC1F7FE2BEF
S11312C0880F911D9695879597F908950E94D808DF
S11312D0E8F09E37E8F09639B8F49E3848F4672F62
S11312E0782F8827985FF9CF86957795679593959A
S11312F09539D0F3B62FB1706B0F711D811D20F499
S113130087957795679593950C948A090C94A5090C
S11313100C94F308882371F4772321F09850872BD9
S1131320762F07C0662311F499270DC09051862BA0
S113133070E060E02AF09A95660F771F881FDAF74D
S1131340880F9695879597F908959F3F31F09150AE
S113135020F4879577956795B795880F911D969595
S1131360879597F9089597FB072E16F4009407D0F4
S113137077FD09D00E94C70907FC05D03EF490957B
S113138081959F4F0895709561957F4F0895AA1B8D
S1131390BB1B51E107C0AA1FBB1FA617B70710F05C
S11313A0A61BB70B881F991F5A95A9F7809590958E
S11313B0BC01CD010895EF920F931F93CF93DF9358
S11313C0E80147FD02C034E001C034E1042E000C02
S11313D0550B57FF03C0519541955109E32E022F38
S11313E0242FAE010E945B0ACE01DF91CF911F91A1
S11313F00F91EF9008954532510520F4423010F0DA
S11314000C94060AFB011082CB010895BB274A30D5
S113141031F4992322F4BDE2909581959F4F0C9469
S1131420120ABB27FB015527AA27880F991FAA1F59
S1131430A41710F0A41B83955051B9F7A05DAA33EB
S113144008F0A95DA193009779F7B111B1931192B6
S1131450CB010C948D0C0F931F93CF93DF93E091EA
S1131460D301F091D401238121FF1BC08C01D0E072
S1131470C0E0F80181918F016091D3017091D40192
S1131480DB011896ED91FC911997882331F00995A9
S1131490892B79F3DFEFCFEFECCF8AE00995892B25
S11314A019F08FEF9FEF02C08D2F9C2FDF91CF910A
S11314B01F910F910895A9E0B0E0E1E6FAE00C94E1
S11314C0A30C6A01122FB02E2BE3201720F0FF2467
S11314D0F394F00E02C02CE3F22E0F2D27E0AE01A0
S11314E04F5F5F4F0E94B50BBC014981842F897007
S11314F0813031F0E1FC06C0E0FE06C090E205C098
S11315009DE203C09BE201C090E05E2D507143FF59
S11315103CC0911102C083E001C084E0811718F43B
S1131520212F281B01C020E051110BC0F601822F8E
S113153030E2882319F031938150FBCFC20ED11CC5
S113154020E0992329F0D6019C93F60131966F018E
S1131550C6010396E2FE0AC03EE4D6013C9341E490
S113156011964C93119712963C9306C03EE6F601F1
S1131570308341E641833283FC01322F40E233233E
S113158009F442C041933150FACF42FF44C0911153
S113159002C083E001C084E0811718F4212F281BC6
S11315A001C020E051110BC0F601822F30E28823E4
S11315B019F031938150FBCFC20ED11C20E0992346
S11315C029F0D6019C93F60131966F01C60103966A
S11315D0E2FE0BC039E4D6013C933EE411963C9301
S11315E0119736E412963C9307C039E6F60130832E
S11315F03EE6318336E63283FC01322F40E2332368
S113160019F041933150FBCFFC01E20FF11D108220
S11316108EEF9FEFA6C021E030E0911102C020E0E0
S113162030E0161617061CF4FB01319602C0E1E007
S1131630F0E02E0F3F1FBB2021F0EB2DF0E03196A0
S113164002C0E0E0F0E02E0F3F1FE12FF0E02E1784
S11316503F071CF4121B212F01C020E08E2D88713E
S113166059F4F601822F30E2882319F03193815026
S1131670FBCFC20ED11C20E0992329F0D6019C9304
S1131680F60131966F0151110BC0F601822F90E3E0
S1131690882319F091938150FBCFC20ED11C20E016
S11316A00F2D060F9A81342F307144FF03C09133FC
S11316B009F40150101624F4093018F008E001C0B0
S11316C001E0AB0177FF02C040E050E0FB01E41B06
S11316D0F50BA1E0B0E0AC0FBD1FEA0FFB1F8EE2DB
S11316E0A82E4B01801A91080B2D10E0119501953D
S11316F011094F3FBFEF5B0721F4D601AC9211965D
S11317006D01641775072CF08416950614F4818115
S113171001C080E3415051093196D60111967D01F3
S11317204017510724F0D6018C936701E2CF641768
S1131730750739F4963320F4953319F4311101C047
S113174081E3F6018083F701822F90E2882319F068
S113175091938150FBCFF701E20FF11D108280E0DD
S113176090E02996ECE00C94BF0C283008F027E0B8
S11317703327DA01990F311D87FD916000966105C9
S1131780710539F432602E5F3D9330E32A95E1F719
S113179008959F3F30F080387105610509F03C5F82
S11317A03C5F3D93913008F08068911DDF93CF93A7
S11317B01F930F93FF92EF92192F987F9695E92F1D
S11317C096959695E90FFF27E255FF4F9927332702
S11317D0EE24FF24A701E70105900894079428F458
S11317E0360FE71EF81E491F511D660F771F881F0D
S11317F0991F0694A1F70590079428F4E70EF81EA4
S1131800491F561FC11D770F881F991F661F069415
S1131810A1F70590079428F4F80E491F561FC71F17
S1131820D11D880F991F661F771F0694A1F7059095
S1131830079420F4490F561FC71FD81F990F661F1E
S1131840771F881F0694A9F784911095177041F0AB
S1131850D695C79557954795F794E7941A95C1F788
S1131860E4E5F0E0689415901591359165919591B2
S113187005907FE27395E118F10A430B560BC90BEF
S1131880D009C0F7E10CF11E431F561FC91FD01D1C
S11318907EF4703311F48A95E6CFE894015030F069
S11318A0080F0AF40027021708F4202F2395022FAB
S11318B07A3328F079E37D932A95E9F710C07D9374
S11318C02A9589F6069497956795379517951794F1
S11318D0E118F10A430B560BC90BD00998F0239574
S11318E07E9173957A3308F070E37C932013B8F7F4
S11318F07E9170617D9330F0839571E37D9370E305
S11319002A95E1F71124EF90FF900F911F91CF9149
S1131910DF91992787FD90950895DC01FC01672FDD
S113192071917723E1F7329704C07C916D937083B2
S11319306291AE17BF07C8F308952F923F924F925A
S11319405F926F927F928F929F92AF92BF92CF924B
S1131950DF92EF92FF920F931F93CF93DF93CDB754
S1131960DEB7CA1BDB0B0FB6F894DEBF0FBECDBFCC
S113197009942A88398848885F846E847D848C849D
S11319809B84AA84B984C884DF80EE80FD800C81A6
S11319901B81AA81B981CE0FD11D0FB6F894DEBF89
S10F19A00FBECDBFED010895F894FFCFF9
S11319AC3738392F3435362A3132332D20303D2B0C
S11319BC25342E33660043757272656E742076611D
S11319CC6C7565203A2000312E4F686D0020203252
S11319DC2E566F6C74002020332E416D6D6574652A
S11319EC720020200043686F6F7365204D6F64652F
S11319FC203A2000312E414300202020322E444333
S1131A0C00303A302D35762000313A302D32307694
S1131A1C2000323A302D3230307600333A302D32C9
S1131A2C30303076005468652076616C75652069B9
S1131A3C73203A2000312E444300202020322E41C2
S1131A4C4300313A302D35206D412000323A302D8F
S1131A5C3530206D4100333A302D34206D41004532
S1131A6C786974696E672070726F6772616D2E2E5F
S1131A7C2E00496E76616C69642063686F696365D6
S1131A8C2E20506C6561736520656E7465722061DF
S1131A9C206E756D626572206265747765656E2063
S1131AAC3120616E6420342E00696E204B6F686D9A
S1131ABC732069733A2000696E206F686D73206916
S1131ACC733A20007468652076616C7565206973BF
S1131ADC20002062656C6F772035306F686D2000B4
S10B1AEC4572726F72202100A3
S9030000FC
